{
  "_format": "hh-sol-artifact-1",
  "contractName": "AAAStaking",
  "sourceName": "contracts/AAAStaking.sol",
  "abi": [
    {
      "inputs": [
        {
          "internalType": "address",
          "name": "_stakingToken",
          "type": "address"
        }
      ],
      "stateMutability": "nonpayable",
      "type": "constructor"
    },
    {
      "inputs": [],
      "name": "ReentrancyGuardReentrantCall",
      "type": "error"
    },
    {
      "anonymous": false,
      "inputs": [
        {
          "indexed": true,
          "internalType": "address",
          "name": "user",
          "type": "address"
        },
        {
          "indexed": false,
          "internalType": "uint256",
          "name": "amount",
          "type": "uint256"
        }
      ],
      "name": "Staked",
      "type": "event"
    },
    {
      "anonymous": false,
      "inputs": [
        {
          "indexed": true,
          "internalType": "address",
          "name": "user",
          "type": "address"
        },
        {
          "indexed": false,
          "internalType": "uint256",
          "name": "amount",
          "type": "uint256"
        }
      ],
      "name": "Withdrawn",
      "type": "event"
    },
    {
      "inputs": [
        {
          "internalType": "uint256",
          "name": "amount",
          "type": "uint256"
        }
      ],
      "name": "stake",
      "outputs": [],
      "stateMutability": "nonpayable",
      "type": "function"
    },
    {
      "inputs": [
        {
          "internalType": "address",
          "name": "",
          "type": "address"
        }
      ],
      "name": "stakes",
      "outputs": [
        {
          "internalType": "uint256",
          "name": "",
          "type": "uint256"
        }
      ],
      "stateMutability": "view",
      "type": "function"
    },
    {
      "inputs": [],
      "name": "stakingToken",
      "outputs": [
        {
          "internalType": "contract IERC20",
          "name": "",
          "type": "address"
        }
      ],
      "stateMutability": "view",
      "type": "function"
    },
    {
      "inputs": [],
      "name": "totalStaked",
      "outputs": [
        {
          "internalType": "uint256",
          "name": "",
          "type": "uint256"
        }
      ],
      "stateMutability": "view",
      "type": "function"
    },
    {
      "inputs": [
        {
          "internalType": "uint256",
          "name": "amount",
          "type": "uint256"
        }
      ],
      "name": "withdraw",
      "outputs": [],
      "stateMutability": "nonpayable",
      "type": "function"
    }
  ],
  "bytecode": "0x608060405234801561001057600080fd5b50604051610ca0380380610ca083398181016040528101906100329190610153565b6001600081905550600073ffffffffffffffffffffffffffffffffffffffff168173ffffffffffffffffffffffffffffffffffffffff16036100a9576040517f08c379a00000000000000000000000000000000000000000000000000000000081526004016100a0906101dd565b60405180910390fd5b80600160006101000a81548173ffffffffffffffffffffffffffffffffffffffff021916908373ffffffffffffffffffffffffffffffffffffffff160217905550506101fd565b600080fd5b600073ffffffffffffffffffffffffffffffffffffffff82169050919050565b6000610120826100f5565b9050919050565b61013081610115565b811461013b57600080fd5b50565b60008151905061014d81610127565b92915050565b600060208284031215610169576101686100f0565b5b60006101778482850161013e565b91505092915050565b600082825260208201905092915050565b7f494e56414c49445f544f4b454e00000000000000000000000000000000000000600082015250565b60006101c7600d83610180565b91506101d282610191565b602082019050919050565b600060208201905081810360008301526101f6816101ba565b9050919050565b610a948061020c6000396000f3fe608060405234801561001057600080fd5b50600436106100575760003560e01c806316934fc41461005c5780632e1a7d4d1461008c57806372f702f3146100a8578063817b1cd2146100c6578063a694fc3a146100e4575b600080fd5b6100766004803603810190610071919061066a565b610100565b60405161008391906106b0565b60405180910390f35b6100a660048036038101906100a191906106f7565b610118565b005b6100b0610391565b6040516100bd9190610783565b60405180910390f35b6100ce6103b7565b6040516100db91906106b0565b60405180910390f35b6100fe60048036038101906100f991906106f7565b6103bd565b005b60026020528060005260406000206000915090505481565b6101206105b7565b60008111610163576040517f08c379a000000000000000000000000000000000000000000000000000000000815260040161015a906107fb565b60405180910390fd5b6000600260003373ffffffffffffffffffffffffffffffffffffffff1673ffffffffffffffffffffffffffffffffffffffff168152602001908152602001600020549050818110156101ea576040517f08c379a00000000000000000000000000000000000000000000000000000000081526004016101e190610867565b60405180910390fd5b81816101f691906108b6565b600260003373ffffffffffffffffffffffffffffffffffffffff1673ffffffffffffffffffffffffffffffffffffffff16815260200190815260200160002081905550816003600082825461024b91906108b6565b925050819055506000600160009054906101000a900473ffffffffffffffffffffffffffffffffffffffff1673ffffffffffffffffffffffffffffffffffffffff1663a9059cbb33856040518363ffffffff1660e01b81526004016102b19291906108f9565b6020604051808303816000875af11580156102d0573d6000803e3d6000fd5b505050506040513d601f19601f820116820180604052508101906102f4919061095a565b905080610336576040517f08c379a000000000000000000000000000000000000000000000000000000000815260040161032d906109d3565b60405180910390fd5b3373ffffffffffffffffffffffffffffffffffffffff167f7084f5476618d8e60b11ef0d7d3f06914655adb8793e28ff7f018d4c76d505d58460405161037c91906106b0565b60405180910390a2505061038e6105fd565b50565b600160009054906101000a900473ffffffffffffffffffffffffffffffffffffffff1681565b60035481565b6103c56105b7565b60008111610408576040517f08c379a00000000000000000000000000000000000000000000000000000000081526004016103ff906107fb565b60405180910390fd5b6000600160009054906101000a900473ffffffffffffffffffffffffffffffffffffffff1673ffffffffffffffffffffffffffffffffffffffff166323b872dd3330856040518463ffffffff1660e01b8152600401610469939291906109f3565b6020604051808303816000875af1158015610488573d6000803e3d6000fd5b505050506040513d601f19601f820116820180604052508101906104ac919061095a565b9050806104ee576040517f08c379a00000000000000000000000000000000000000000000000000000000081526004016104e5906109d3565b60405180910390fd5b81600260003373ffffffffffffffffffffffffffffffffffffffff1673ffffffffffffffffffffffffffffffffffffffff168152602001908152602001600020600082825461053d9190610a2a565b9250508190555081600360008282546105569190610a2a565b925050819055503373ffffffffffffffffffffffffffffffffffffffff167f9e71bc8eea02a63969f509818f2dafb9254532904319f9dbda79b67bd34a5f3d836040516105a391906106b0565b60405180910390a2506105b46105fd565b50565b6002600054036105f3576040517f3ee5aeb500000000000000000000000000000000000000000000000000000000815260040160405180910390fd5b6002600081905550565b6001600081905550565b600080fd5b600073ffffffffffffffffffffffffffffffffffffffff82169050919050565b60006106378261060c565b9050919050565b6106478161062c565b811461065257600080fd5b50565b6000813590506106648161063e565b92915050565b6000602082840312156106805761067f610607565b5b600061068e84828501610655565b91505092915050565b6000819050919050565b6106aa81610697565b82525050565b60006020820190506106c560008301846106a1565b92915050565b6106d481610697565b81146106df57600080fd5b50565b6000813590506106f1816106cb565b92915050565b60006020828403121561070d5761070c610607565b5b600061071b848285016106e2565b91505092915050565b6000819050919050565b600061074961074461073f8461060c565b610724565b61060c565b9050919050565b600061075b8261072e565b9050919050565b600061076d82610750565b9050919050565b61077d81610762565b82525050565b60006020820190506107986000830184610774565b92915050565b600082825260208201905092915050565b7f414d4f554e545f5a45524f000000000000000000000000000000000000000000600082015250565b60006107e5600b8361079e565b91506107f0826107af565b602082019050919050565b60006020820190508181036000830152610814816107d8565b9050919050565b7f494e53554646494349454e545f5354414b450000000000000000000000000000600082015250565b600061085160128361079e565b915061085c8261081b565b602082019050919050565b6000602082019050818103600083015261088081610844565b9050919050565b7f4e487b7100000000000000000000000000000000000000000000000000000000600052601160045260246000fd5b60006108c182610697565b91506108cc83610697565b92508282039050818111156108e4576108e3610887565b5b92915050565b6108f38161062c565b82525050565b600060408201905061090e60008301856108ea565b61091b60208301846106a1565b9392505050565b60008115159050919050565b61093781610922565b811461094257600080fd5b50565b6000815190506109548161092e565b92915050565b6000602082840312156109705761096f610607565b5b600061097e84828501610945565b91505092915050565b7f5452414e534645525f4641494c45440000000000000000000000000000000000600082015250565b60006109bd600f8361079e565b91506109c882610987565b602082019050919050565b600060208201905081810360008301526109ec816109b0565b9050919050565b6000606082019050610a0860008301866108ea565b610a1560208301856108ea565b610a2260408301846106a1565b949350505050565b6000610a3582610697565b9150610a4083610697565b9250828201905080821115610a5857610a57610887565b5b9291505056fea26469706673582212206c06dd94740bccd81a784adc48007e0427520e616523cf8cf1bd58db725392ce64736f6c634300081c0033",
  "linkReferences": {},
  "deployedLinkReferences": {}
}